{
  "_format": "hh-sol-artifact-1",
  "contractName": "Vanets",
  "sourceName": "contracts/Vanets.sol",
  "abi": [
    {
      "inputs": [],
      "stateMutability": "payable",
      "type": "constructor"
    },
    {
      "anonymous": false,
      "inputs": [
        {
          "indexed": false,
          "internalType": "address",
          "name": "owner",
          "type": "address"
        },
        {
          "indexed": false,
          "internalType": "string",
          "name": "info",
          "type": "string"
        }
      ],
      "name": "ContractCreated",
      "type": "event"
    },
    {
      "inputs": [
        {
          "internalType": "uint256",
          "name": "_id",
          "type": "uint256"
        },
        {
          "internalType": "string",
          "name": "_velocity",
          "type": "string"
        },
        {
          "internalType": "string",
          "name": "_node_type",
          "type": "string"
        },
        {
          "internalType": "string",
          "name": "_IPFShash",
          "type": "string"
        }
      ],
      "name": "addDataToNode",
      "outputs": [],
      "stateMutability": "nonpayable",
      "type": "function"
    },
    {
      "inputs": [],
      "name": "admin",
      "outputs": [
        {
          "internalType": "address",
          "name": "",
          "type": "address"
        }
      ],
      "stateMutability": "view",
      "type": "function"
    },
    {
      "inputs": [],
      "name": "contState",
      "outputs": [
        {
          "internalType": "enum Vanets.contractState",
          "name": "",
          "type": "uint8"
        }
      ],
      "stateMutability": "view",
      "type": "function"
    },
    {
      "inputs": [],
      "name": "createContract",
      "outputs": [],
      "stateMutability": "nonpayable",
      "type": "function"
    },
    {
      "inputs": [
        {
          "internalType": "uint256",
          "name": "_id",
          "type": "uint256"
        },
        {
          "internalType": "uint256",
          "name": "_IPFShashIndex",
          "type": "uint256"
        }
      ],
      "name": "getIPFShash",
      "outputs": [
        {
          "internalType": "string",
          "name": "",
          "type": "string"
        }
      ],
      "stateMutability": "view",
      "type": "function"
    },
    {
      "inputs": [
        {
          "internalType": "uint256",
          "name": "_id",
          "type": "uint256"
        },
        {
          "internalType": "uint256",
          "name": "_nodeTypeIndex",
          "type": "uint256"
        }
      ],
      "name": "getNodeType",
      "outputs": [
        {
          "internalType": "string",
          "name": "",
          "type": "string"
        }
      ],
      "stateMutability": "view",
      "type": "function"
    },
    {
      "inputs": [
        {
          "internalType": "uint256",
          "name": "_id",
          "type": "uint256"
        },
        {
          "internalType": "uint256",
          "name": "_velocityIndex",
          "type": "uint256"
        }
      ],
      "name": "getNodeVelocity",
      "outputs": [
        {
          "internalType": "string",
          "name": "",
          "type": "string"
        }
      ],
      "stateMutability": "view",
      "type": "function"
    },
    {
      "inputs": [
        {
          "internalType": "uint256",
          "name": "_id",
          "type": "uint256"
        }
      ],
      "name": "newNode",
      "outputs": [],
      "stateMutability": "nonpayable",
      "type": "function"
    },
    {
      "inputs": [
        {
          "internalType": "uint256",
          "name": "_id",
          "type": "uint256"
        },
        {
          "internalType": "uint256",
          "name": "_index",
          "type": "uint256"
        },
        {
          "internalType": "string",
          "name": "_newVelocity",
          "type": "string"
        },
        {
          "internalType": "string",
          "name": "_newNodeType",
          "type": "string"
        },
        {
          "internalType": "string",
          "name": "_newIPFShash",
          "type": "string"
        }
      ],
      "name": "setDataToNode",
      "outputs": [],
      "stateMutability": "nonpayable",
      "type": "function"
    }
  ],
  "bytecode": "0x6080604052336000806101000a81548173ffffffffffffffffffffffffffffffffffffffff021916908373ffffffffffffffffffffffffffffffffffffffff1602179055506000600260006101000a81548160ff02191690836001811115610090577f4e487b7100000000000000000000000000000000000000000000000000000000600052602160045260246000fd5b0217905550611433806100a46000396000f3fe608060405234801561001057600080fd5b50600436106100935760003560e01c80639f63839e116100665780639f63839e1461010c578063d0385e1a14610128578063eb194dad14610158578063f146d33314610188578063f851a440146101a457610093565b8063124fb5c8146100985780631dc4ee88146100c85780633e17d8e9146100e6578063412a5a6d14610102575b600080fd5b6100b260048036038101906100ad9190610fca565b6101c2565b6040516100bf91906111c0565b60405180910390f35b6100d061038f565b6040516100dd91906111a5565b60405180910390f35b61010060048036038101906100fb9190611006565b6103a2565b005b61010a6105d2565b005b61012660048036038101906101219190610ef6565b610740565b005b610142600480360381019061013d9190610fca565b610840565b60405161014f91906111c0565b60405180910390f35b610172600480360381019061016d9190610fca565b610a0d565b60405161017f91906111c0565b60405180910390f35b6101a2600480360381019061019d9190610f1f565b610bda565b005b6101ac610db2565b6040516101b9919061115c565b60405180910390f35b60606001808111156101fd577f4e487b7100000000000000000000000000000000000000000000000000000000600052602160045260246000fd5b600260009054906101000a900460ff166001811115610245577f4e487b7100000000000000000000000000000000000000000000000000000000600052602160045260246000fd5b14801561029d575060008054906101000a900473ffffffffffffffffffffffffffffffffffffffff1673ffffffffffffffffffffffffffffffffffffffff163373ffffffffffffffffffffffffffffffffffffffff16145b6102a657600080fd5b6001600084815260200190815260200160002060020182815481106102f4577f4e487b7100000000000000000000000000000000000000000000000000000000600052603260045260246000fd5b90600052602060002001805461030990611302565b80601f016020809104026020016040519081016040528092919081815260200182805461033590611302565b80156103825780601f1061035757610100808354040283529160200191610382565b820191906000526020600020905b81548152906001019060200180831161036557829003601f168201915b5050505050905092915050565b600260009054906101000a900460ff1681565b6001808111156103db577f4e487b7100000000000000000000000000000000000000000000000000000000600052602160045260246000fd5b600260009054906101000a900460ff166001811115610423577f4e487b7100000000000000000000000000000000000000000000000000000000600052602160045260246000fd5b14801561047b575060008054906101000a900473ffffffffffffffffffffffffffffffffffffffff1673ffffffffffffffffffffffffffffffffffffffff163373ffffffffffffffffffffffffffffffffffffffff16145b61048457600080fd5b826001600087815260200190815260200160002060010185815481106104d3577f4e487b7100000000000000000000000000000000000000000000000000000000600052603260045260246000fd5b9060005260206000200190805190602001906104f0929190610dd6565b5081600160008781526020019081526020016000206002018581548110610540577f4e487b7100000000000000000000000000000000000000000000000000000000600052603260045260246000fd5b90600052602060002001908051906020019061055d929190610dd6565b50806001600087815260200190815260200160002060030185815481106105ad577f4e487b7100000000000000000000000000000000000000000000000000000000600052603260045260246000fd5b9060005260206000200190805190602001906105ca929190610dd6565b505050505050565b60008054906101000a900473ffffffffffffffffffffffffffffffffffffffff1673ffffffffffffffffffffffffffffffffffffffff163373ffffffffffffffffffffffffffffffffffffffff161461062a57600080fd5b60006001811115610664577f4e487b7100000000000000000000000000000000000000000000000000000000600052602160045260246000fd5b600260009054906101000a900460ff1660018111156106ac577f4e487b7100000000000000000000000000000000000000000000000000000000600052602160045260246000fd5b146106b657600080fd5b6001600260006101000a81548160ff02191690836001811115610702577f4e487b7100000000000000000000000000000000000000000000000000000000600052602160045260246000fd5b02179055507f5748f17320a7bfc4dad968e541c61b9fa9923765f9efdfa3dffc76763e02d196336040516107369190611177565b60405180910390a1565b600180811115610779577f4e487b7100000000000000000000000000000000000000000000000000000000600052602160045260246000fd5b600260009054906101000a900460ff1660018111156107c1577f4e487b7100000000000000000000000000000000000000000000000000000000600052602160045260246000fd5b148015610819575060008054906101000a900473ffffffffffffffffffffffffffffffffffffffff1673ffffffffffffffffffffffffffffffffffffffff163373ffffffffffffffffffffffffffffffffffffffff16145b61082257600080fd5b80600160008381526020019081526020016000206000018190555050565b606060018081111561087b577f4e487b7100000000000000000000000000000000000000000000000000000000600052602160045260246000fd5b600260009054906101000a900460ff1660018111156108c3577f4e487b7100000000000000000000000000000000000000000000000000000000600052602160045260246000fd5b14801561091b575060008054906101000a900473ffffffffffffffffffffffffffffffffffffffff1673ffffffffffffffffffffffffffffffffffffffff163373ffffffffffffffffffffffffffffffffffffffff16145b61092457600080fd5b600160008481526020019081526020016000206001018281548110610972577f4e487b7100000000000000000000000000000000000000000000000000000000600052603260045260246000fd5b90600052602060002001805461098790611302565b80601f01602080910402602001604051908101604052809291908181526020018280546109b390611302565b8015610a005780601f106109d557610100808354040283529160200191610a00565b820191906000526020600020905b8154815290600101906020018083116109e357829003601f168201915b5050505050905092915050565b6060600180811115610a48577f4e487b7100000000000000000000000000000000000000000000000000000000600052602160045260246000fd5b600260009054906101000a900460ff166001811115610a90577f4e487b7100000000000000000000000000000000000000000000000000000000600052602160045260246000fd5b148015610ae8575060008054906101000a900473ffffffffffffffffffffffffffffffffffffffff1673ffffffffffffffffffffffffffffffffffffffff163373ffffffffffffffffffffffffffffffffffffffff16145b610af157600080fd5b600160008481526020019081526020016000206003018281548110610b3f577f4e487b7100000000000000000000000000000000000000000000000000000000600052603260045260246000fd5b906000526020600020018054610b5490611302565b80601f0160208091040260200160405190810160405280929190818152602001828054610b8090611302565b8015610bcd5780601f10610ba257610100808354040283529160200191610bcd565b820191906000526020600020905b815481529060010190602001808311610bb057829003601f168201915b5050505050905092915050565b600180811115610c13577f4e487b7100000000000000000000000000000000000000000000000000000000600052602160045260246000fd5b600260009054906101000a900460ff166001811115610c5b577f4e487b7100000000000000000000000000000000000000000000000000000000600052602160045260246000fd5b148015610cb3575060008054906101000a900473ffffffffffffffffffffffffffffffffffffffff1673ffffffffffffffffffffffffffffffffffffffff163373ffffffffffffffffffffffffffffffffffffffff16145b610cbc57600080fd5b6001600085815260200190815260200160002060010183908060018154018082558091505060019003906000526020600020016000909190919091509080519060200190610d0b929190610dd6565b506001600085815260200190815260200160002060020182908060018154018082558091505060019003906000526020600020016000909190919091509080519060200190610d5b929190610dd6565b506001600085815260200190815260200160002060030181908060018154018082558091505060019003906000526020600020016000909190919091509080519060200190610dab929190610dd6565b5050505050565b60008054906101000a900473ffffffffffffffffffffffffffffffffffffffff1681565b828054610de290611302565b90600052602060002090601f016020900481019282610e045760008555610e4b565b82601f10610e1d57805160ff1916838001178555610e4b565b82800160010185558215610e4b579182015b82811115610e4a578251825591602001919060010190610e2f565b5b509050610e589190610e5c565b5090565b5b80821115610e75576000816000905550600101610e5d565b5090565b6000610e8c610e8784611213565b6111e2565b905082815260208101848484011115610ea457600080fd5b610eaf8482856112c0565b509392505050565b600082601f830112610ec857600080fd5b8135610ed8848260208601610e79565b91505092915050565b600081359050610ef0816113e6565b92915050565b600060208284031215610f0857600080fd5b6000610f1684828501610ee1565b91505092915050565b60008060008060808587031215610f3557600080fd5b6000610f4387828801610ee1565b945050602085013567ffffffffffffffff811115610f6057600080fd5b610f6c87828801610eb7565b935050604085013567ffffffffffffffff811115610f8957600080fd5b610f9587828801610eb7565b925050606085013567ffffffffffffffff811115610fb257600080fd5b610fbe87828801610eb7565b91505092959194509250565b60008060408385031215610fdd57600080fd5b6000610feb85828601610ee1565b9250506020610ffc85828601610ee1565b9150509250929050565b600080600080600060a0868803121561101e57600080fd5b600061102c88828901610ee1565b955050602061103d88828901610ee1565b945050604086013567ffffffffffffffff81111561105a57600080fd5b61106688828901610eb7565b935050606086013567ffffffffffffffff81111561108357600080fd5b61108f88828901610eb7565b925050608086013567ffffffffffffffff8111156110ac57600080fd5b6110b888828901610eb7565b9150509295509295909350565b6110ce8161125f565b82525050565b6110dd816112ae565b82525050565b60006110ee82611243565b6110f8818561124e565b93506111088185602086016112cf565b611111816113c1565b840191505092915050565b600061112960208361124e565b91507f536d61727420436f6e747261637420637265617465642062792041646d696e2e6000830152602082019050919050565b600060208201905061117160008301846110c5565b92915050565b600060408201905061118c60008301846110c5565b818103602083015261119d8161111c565b905092915050565b60006020820190506111ba60008301846110d4565b92915050565b600060208201905081810360008301526111da81846110e3565b905092915050565b6000604051905081810181811067ffffffffffffffff8211171561120957611208611392565b5b8060405250919050565b600067ffffffffffffffff82111561122e5761122d611392565b5b601f19601f8301169050602081019050919050565b600081519050919050565b600082825260208201905092915050565b600061126a82611284565b9050919050565b600081905061127f826113d2565b919050565b600073ffffffffffffffffffffffffffffffffffffffff82169050919050565b6000819050919050565b60006112b982611271565b9050919050565b82818337600083830152505050565b60005b838110156112ed5780820151818401526020810190506112d2565b838111156112fc576000848401525b50505050565b6000600282049050600182168061131a57607f821691505b6020821081141561132e5761132d611363565b5b50919050565b7f4e487b7100000000000000000000000000000000000000000000000000000000600052602160045260246000fd5b7f4e487b7100000000000000000000000000000000000000000000000000000000600052602260045260246000fd5b7f4e487b7100000000000000000000000000000000000000000000000000000000600052604160045260246000fd5b6000601f19601f8301169050919050565b600281106113e3576113e2611334565b5b50565b6113ef816112a4565b81146113fa57600080fd5b5056fea26469706673582212200462c03bf8f11cb13dd25a25498618710e428f30025c35137fb89f20508b541b64736f6c63430008000033",
  "linkReferences": {},
  "deployedLinkReferences": {}
}